:100000000C9435000C945D000C945D000C945D0024
:100010000C945D000C945D000C945D000C945D00EC
:100020000C945D000C945D000C945D000C945D00DC
:100030000C945D000C945D000C945D000C945D00CC
:100040000C94F3010C945D000C9463020C943D023B
:100050000C945D000C945D000C945D000C945D00AC
:100060000C945D000C945D00410411241FBECFEF81
:10007000D8E0DEBFCDBF11E0A0E0B1E0E8EAFDE0EE
:1000800002C005900D92AE33B107D9F721E0AEE37F
:10009000B1E001C01D92A43EB207E1F710E0C5E354
:1000A000D0E004C02197FE010E94CC06C433D107E2
:1000B000C9F70E9495020C94D2060C94000080E4CB
:1000C00080937C0080917A00806480937A00809194
:1000D0007A0086FDFCCF8091780090917900089598
:1000E0003FB7F8948091430190914401A09145015C
:1000F000B091460126B5A89B05C02F3F19F0019687
:10010000A11DB11D3FBFBA2FA92F982F8827BC0171
:10011000CD01620F711D811D911D42E0660F771F99
:10012000881F991F4A95D1F70895AF92BF92CF9239
:10013000DF92EF92FF920F931F93CF93DF936C01A7
:100140007B018B01040F151FEB015E01AE18BF0888
:10015000C017D10759F06991D601ED91FC9101903A
:10016000F081E02DC6010995892B79F7C501DF9152
:10017000CF911F910F91FF90EF90DF90CF90BF90A4
:10018000AF900895FC01538D448D252F30E0842FCE
:1001900090E0821B930B541710F0CF9608950197AF
:1001A0000895FC01918D828D981761F0A28DAE0F9C
:1001B000BF2FB11D5D968C91928D9F5F9F73928F23
:1001C00090E008958FEF9FEF0895FC01918D828D4F
:1001D000981731F0828DE80FF11D858D90E008951C
:1001E0008FEF9FEF0895FC01918D228D892F90E074
:1001F000805C9F4F821B91098F739927089587E434
:1002000091E00E94F30021E0892B09F420E0822F85
:10021000089580E090E0892B29F00E94FF00811171
:100220000C9400000895FC01A48DA80FB92FB11DF6
:10023000A35ABF4F2C91848D90E001968F7399271C
:10024000848FA689B7892C93A089B1898C918370FA
:1002500080648C93938D848D981306C00288F389F3
:10026000E02D80818F7D80830895EF92FF920F9320
:100270001F93CF93DF93EC0181E0888F9B8D8C8D52
:1002800098131AC0E889F989808185FF15C09FB746
:10029000F894EE89FF896083E889F9898081837009
:1002A000806480839FBF81E090E0DF91CF911F91B8
:1002B0000F91FF90EF900895F62E0B8D10E00F5FD9
:1002C0001F4F0F731127E02E8C8D8E110CC00FB6AF
:1002D00007FCFACFE889F989808185FFF5CFCE0147
:1002E0000E941301F1CFEB8DEC0FFD2FF11DE35AAE
:1002F000FF4FF0829FB7F8940B8FEA89FB898081CA
:100300008062CFCFCF93DF93EC01888D8823B9F043
:10031000AA89BB89E889F9898C9185FD03C0808110
:1003200086FD0DC00FB607FCF7CF8C9185FFF2CF8D
:10033000808185FFEDCFCE010E941301E9CFDF91CF
:10034000CF910895FC0101900020E9F73197AF01AA
:10035000481B590BBC0187E491E00C9495008F92E7
:100360009F92AF92BF920F931F93CF93DF93CDB71E
:10037000DEB7A1970FB6F894DEBF0FBECDBF19A2AE
:10038000423008F44AE08E010F5D1F4F842E912CFD
:10039000B12CA12CA50194010E94AA06E62FB90157
:1003A000CA01EA30F4F4E05DD801EE938D01232B0D
:1003B000242B252B79F790E080E0109719F0CD01E0
:1003C0000E94A201A1960FB6F894DEBF0FBECDBF6A
:1003D000DF91CF911F910F91BF90AF909F908F9021
:1003E0000895E95CE1CF1F920F920FB60F9211248E
:1003F0002F933F938F939F93AF93BF9380913F0130
:1004000090914001A0914101B091420130913E0193
:1004100023E0230F2D3758F50196A11DB11D209320
:100420003E0180933F0190934001A0934101B0931E
:1004300042018091430190914401A0914501B09106
:1004400046010196A11DB11D809343019093440183
:10045000A0934501B0934601BF91AF919F918F91B9
:100460003F912F910F900FBE0F901F90189526E887
:10047000230F0296A11DB11DD2CF1F920F920FB66E
:100480000F9211242F933F934F935F936F937F931A
:100490008F939F93AF93BF93EF93FF9387E491E084
:1004A0000E941301FF91EF91BF91AF919F918F91A6
:1004B0007F916F915F914F913F912F910F900FBE60
:1004C0000F901F9018951F920F920FB60F92112444
:1004D0002F938F939F93EF93FF93E0915701F091A8
:1004E00058018081E0915D01F0915E0182FD1BC0A9
:1004F0009081809160018F5F8F73209161018217DD
:1005000041F0E0916001F0E0E95BFE4F958F809350
:100510006001FF91EF919F918F912F910F900FBEEE
:100520000F901F9018958081F4CF789484B58260E5
:1005300084BD84B5816084BD85B5826085BD85B587
:10054000816085BD80916E00816080936E00109205
:100550008100809181008260809381008091810080
:100560008160809381008091800081608093800011
:100570008091B10084608093B1008091B00081606F
:100580008093B00080917A00846080937A0080919B
:100590007A00826080937A0080917A0081608093F3
:1005A0007A0080917A00806880937A001092C1006E
:1005B000E0915701F091580182E08083E09153016E
:1005C000F09154011082E0915501F09156018FECA9
:1005D000808310925F01E0915B01F0915C0186E005
:1005E0008083E0915901F0915A018081806180837C
:1005F000E0915901F0915A01808188608083E091F7
:100600005901F0915A01808180688083E0915901FD
:10061000F0915A0180818F7D8083C0E0D0E004EFAB
:1006200011E0C12CD12C76010E945F00BC01990F12
:10063000880B990B0E9483052AE038E240EA5BE3CD
:100640000E94380620E030E040E250E40E946E0450
:100650002DEC3CEC4CEC5DE30E94E0049B01AC0112
:10066000C701B6010E946F046B017C0101501109A2
:10067000D9F620E030E04AEF53E40E94E0046B0139
:100680007C0120E030E0A9010E94DB0487FF03C069
:10069000C12CD12C760182E191E00E94A201A70138
:1006A0009601C701B6010E94A506882309F45EC021
:1006B0008EE191E00E94A2018AE291E00E94A201F3
:1006C0008CE291E00E94A2018FE291E00E94A201DF
:1006D0000E945F006C01990FEE08FF084AE0C70115
:1006E000B601F7FE0DC06DE287E491E00E9435018E
:1006F00066277727CB016C197D098E099F094AE08F
:100700000E94AF018CE291E00E94A2010E94700061
:100710004B015C0188EEC82E83E0D82EE12CF12C31
:100720000E947000681979098A099B09683E734024
:1007300081059105A8F321E0C21AD108E108F1086A
:1007400088EE880E83E0981EA11CB11CC114D10450
:10075000E104F10429F7209709F461CF0E94FF001A
:10076000882309F45CCF0E94000059CF460157014D
:10077000E894B7F82FEF3FEF4FE75FE7C501B4010B
:100780000E94A50681110DC02FEF3FEF4FE75FE7F5
:10079000C501B4010E94DB0418161CF482E291E04A
:1007A00089CF2FEF3FEF4FE75FE4C701B6010E940B
:1007B000330618161CF486E291E07CCF2FEF3FEF52
:1007C0004FE75FECC701B6010E94DB0487FDF3CF62
:1007D00020E030E0A901C701B6010E94DB0487FFD9
:1007E00009C06DE287E491E00E943501F7FAF094C8
:1007F000F7F8F0942EE632E143E05AE3C701B60180
:100800000E946F046B017C010E9452054B015C0148
:100810000E9481059B01AC01C701B6010E946E04D4
:100820006B017C014AE0C501B4010E94AF016EE298
:1008300087E491E00E94350114E0115009F43CCFA7
:1008400020E030E040E251E4C701B6010E943806E2
:100850004B015C010E9452056B01F12CE12C4AE036
:10086000C701B6010E94AF01C701B6010E94810510
:100870009B01AC01C501B4010E946E046B017C01B7
:10088000DCCFE7E4F1E01382128288EE93E0A0E08F
:10089000B0E084839583A683B78384E091E091835D
:1008A000808385EC90E09587848784EC90E097873F
:1008B000868780EC90E0918B808B81EC90E0938B2D
:1008C000828B82EC90E0958B848B86EC90E0978B0A
:1008D000868B118E128E138E148E08955058BB275E
:1008E000AA270E9486040C94F9050E94EB0538F0B3
:1008F0000E94F20520F039F49F3F19F426F40C947D
:10090000E8050EF4E095E7FB0C94E205E92F0E9460
:100910000A0658F3BA17620773078407950720F091
:1009200079F4A6F50C942C060EF4E0950B2EBA2F54
:10093000A02D0B01B90190010C01CA01A0011124E5
:10094000FF27591B99F0593F50F4503E68F11A1691
:10095000F040A22F232F342F4427585FF3CF469522
:1009600037952795A795F0405395C9F77EF41F1644
:10097000BA0B620B730B840BBAF09150A1F0FF0F0E
:10098000BB1F661F771F881FC2F70EC0BA0F621FFA
:10099000731F841F48F4879577956795B795F795EA
:1009A0009E3F08F0B0CF9395880F08F09927EE0F7F
:1009B0009795879508950E94BE0508F481E00895F3
:1009C0000E94F4040C94F9050E94F20558F00E946C
:1009D000EB0540F029F45F3F29F00C94E20551113A
:1009E0000C942D060C94E8050E940A0668F39923DE
:1009F000B1F3552391F3951B550BBB27AA2762171B
:100A00007307840738F09F5F5F4F220F331F441F27
:100A1000AA1FA9F335D00E2E3AF0E0E832D091505B
:100A20005040E695001CCAF72BD0FE2F29D0660F48
:100A3000771F881FBB1F261737074807AB07B0E88B
:100A400009F0BB0B802DBF01FF2793585F4F3AF091
:100A50009E3F510578F00C94E2050C942D065F3F03
:100A6000E4F3983ED4F3869577956795B795F79517
:100A70009F5FC9F7880F911D9695879597F90895FF
:100A8000E1E0660F771F881FBB1F6217730784079B
:100A9000BA0720F0621B730B840BBA0BEE1F88F7AA
:100AA000E09508950E94120688F09F5798F0B92F9C
:100AB0009927B751B0F0E1F0660F771F881F991F93
:100AC0001AF0BA95C9F714C0B13091F00E942C0603
:100AD000B1E008950C942C06672F782F8827B85F13
:100AE00039F0B93FCCF3869577956795B395D9F7EB
:100AF0003EF490958095709561957F4F8F4F9F4FF5
:100B00000895E89409C097FB3EF490958095709500
:100B100061957F4F8F4F9F4F9923A9F0F92F96E949
:100B2000BB279395F695879577956795B795F111BE
:100B3000F8CFFAF4BB0F11F460FF1BC06F5F7F4F5B
:100B40008F4F9F4F16C0882311F096E911C077236D
:100B500021F09EE8872F762F05C0662371F096E876
:100B6000862F70E060E02AF09A95660F771F881F45
:100B7000DAF7880F9695879597F90895990F0008E9
:100B8000550FAA0BE0E8FEEF16161706E807F9075F
:100B9000C0F012161306E407F50798F0621B730BFA
:100BA000840B950B39F40A2661F0232B242B252B7B
:100BB00021F408950A2609F4A140A6958FEF811D1E
:100BC000811D089597F99F6780E870E060E00895BF
:100BD0009FEF80EC089500240A9416161706180655
:100BE0000906089500240A94121613061406050631
:100BF0000895092E0394000C11F4882352F0BB0FC2
:100C000040F4BF2B11F460FF04C06F5F7F4F8F4F24
:100C10009F4F089557FD9058440F551F59F05F3F5F
:100C200071F04795880F97FB991F61F09F3F79F00E
:100C300087950895121613061406551FF2CF469590
:100C4000F1DF08C0161617061806991FF1CF869512
:100C50007105610508940895E894BB2766277727F6
:100C6000CB0197F908950E94BE0508F48FEF08950F
:100C70000E944B060C94F9050E94EB0538F00E9487
:100C8000F20520F0952311F00C94E2050C94E80590
:100C900011240C942D060E940A0670F3959FC1F34F
:100CA000950F50E0551F629FF001729FBB27F00D1A
:100CB000B11D639FAA27F00DB11DAA1F649F66276F
:100CC000B00DA11D661F829F2227B00DA11D621FBE
:100CD000739FB00DA11D621F839FA00D611D221F78
:100CE000749F3327A00D611D231F849F600D211D5C
:100CF000822F762F6A2F11249F5750409AF0F1F0DF
:100D000088234AF0EE0FFF1FBB1F661F771F881F47
:100D100091505040A9F79E3F510580F00C94E20598
:100D20000C942D065F3FE4F3983ED4F386957795B7
:100D30006795B795F795E7959F5FC1F7FE2B880FED
:100D4000911D9695879597F908950E94BE05880B89
:100D5000990B0895A1E21A2EAA1BBB1BFD010DC021
:100D6000AA1FBB1FEE1FFF1FA217B307E407F5075B
:100D700020F0A21BB30BE40BF50B661F771F881F37
:100D8000991F1A9469F760957095809590959B01CD
:100D9000AC01BD01CF010895EE0FFF1F0590F49146
:080DA000E02D0994F894FFCF47
:100DA8000000000035019500C2008201F300D10067
:100DB800E500436F727269656E74653A20006E6172
:100DC8006E00696E66006F76660041000D0A004C81
:0E0DD800656374757261207265616C3A20006B
:00000001FF
