:100000000C9435000C945D000C945D000C945D0024
:100010000C945D000C945D000C945D000C945D00EC
:100020000C945D000C945D000C945D000C945D00DC
:100030000C945D000C945D000C945D000C945D00CC
:100040000C9485020C945D000C94F5020C94CF0284
:100050000C945D000C945D000C945D000C945D00AC
:100060000C945D000C945D00270311241FBECFEF9C
:10007000D8E0DEBFCDBF11E0A0E0B1E0E8EDFCE0EC
:1000800002C005900D92A037B107D9F722E0A0E792
:10009000B1E001C01D92AB31B207E1F710E0C5E35A
:1000A000D0E004C02197FE010E946406C433D1074A
:1000B000C9F70E9454030C946A060C9400003FB7E1
:1000C000F89480917A0190917B01A0917C01B0918C
:1000D0007D0126B5A89B05C02F3F19F00196A11DF3
:1000E000B11D3FBFBA2FA92F982F8827BC01CD0182
:1000F000620F711D811D911D42E0660F771F881FE1
:10010000991F4A95D1F708958F929F92AF92BF920F
:10011000CF92DF92EF92FF926B017C010E945F0011
:100120004B015C01C114D104E104F104B9F00E9457
:100130005F00681979098A099B09683E7340810547
:10014000910580F321E0C21AD108E108F10888EE98
:10015000880E83E0981EA11CB11CE4CFFF90EF90A5
:10016000DF90CF90BF90AF909F908F900895AF9207
:10017000BF92CF92DF92EF92FF920F931F93CF9394
:10018000DF936C017B018B01040F151FEB015E01F6
:10019000AE18BF08C017D10759F06991D601ED918B
:1001A000FC910190F081E02DC6010995892B79F72A
:1001B000C501DF91CF911F910F91FF90EF90DF90DC
:1001C000CF90BF90AF900895FC01538D448D252FA3
:1001D00030E0842F90E0821B930B541710F0CF96E1
:1001E000089501970895FC01918D828D981761F013
:1001F000A28DAE0FBF2FB11D5D968C91928D9F5F2A
:100200009F73928F90E008958FEF9FEF0895FC0108
:10021000918D828D981731F0828DE80FF11D858DBB
:1002200090E008958FEF9FEF0895FC01918D228D4E
:10023000892F90E0805C9F4F821B91098F739927D3
:1002400008958EE791E00E94150121E0892B09F4C1
:1002500020E0822F089580E090E0892B29F00E9411
:10026000210181110C9400000895FC01A48DA80FB8
:10027000B92FB11DA35ABF4F2C91848D90E00196E8
:100280008F739927848FA689B7892C93A089B18908
:100290008C91837080648C93938D848D981306C0A9
:1002A0000288F389E02D80818F7D80830895EF920D
:1002B000FF920F931F93CF93DF93EC0181E0888F20
:1002C0009B8D8C8D98131AC0E889F989808185FFF0
:1002D00015C09FB7F894EE89FF896083E889F98992
:1002E00080818370806480839FBF81E090E0DF9194
:1002F000CF911F910F91FF90EF900895F62E0B8DE7
:1003000010E00F5F1F4F0F731127E02E8C8D8E11A1
:100310000CC00FB607FCFACFE889F989808185FF08
:10032000F5CFCE010E943501F1CFEB8DEC0FFD2F03
:10033000F11DE35AFF4FF0829FB7F8940B8FEA89C3
:10034000FB8980818062CFCFCF93DF93EC01888DD2
:100350008823B9F0AA89BB89E889F9898C9185FD40
:1003600003C0808186FD0DC00FB607FCF7CF8C91CE
:1003700085FFF2CF808185FFEDCFCE010E94350150
:10038000E9CFDF91CF910895CF92DF92EF92FF9264
:100390001F93CF93DF93C4EFD1E0C12CD12C760112
:1003A00010E410937C0080917A00806480937A003E
:1003B00080917A0086FDFCCF609178007091790081
:1003C000072E000C880B990B0E9420052AE038E2CA
:1003D00040EA5BE30E94D50520E030E040E250E4D3
:1003E0000E943A042DEC3CEC4CEC5DE30E94AC0422
:1003F0009B01AC01C701B6010E943B046B017C016B
:10040000219779F620E030E04AEF53E40E94AC04F3
:100410006B017C0120E030E0A9010E94A70487FD68
:100420000BC0C1E02DEC3CEC4CEC5DE3C701B60128
:100430000E94D00518160CF0C0E08C2FDF91CF91F0
:100440001F91FF90EF90DF90CF900895FC010190F5
:100450000020E9F73197AF01481B590BBC018EE72B
:1004600091E00C94B7008F929F92AF92BF920F933E
:100470001F93CF93DF93CDB7DEB7A1970FB6F89454
:10048000DEBF0FBECDBF19A2423008F44AE08E0194
:100490000F5D1F4F842E912CB12CA12CA50194012E
:1004A0000E944206E62FB901CA01EA30F4F4E05D89
:1004B000D801EE938D01232B242B252B79F790E087
:1004C00080E0109719F0CD010E942602A1960FB688
:1004D000F894DEBF0FBECDBFDF91CF911F910F917A
:1004E000BF90AF909F908F900895E95CE1CFCF933C
:1004F000DF930E942602EC0182E191E00E94260235
:100500008C0F9D1FDF91CF9108951F920F920FB610
:100510000F9211242F933F938F939F93AF93BF9389
:100520008091760190917701A0917801B091790145
:100530003091750123E0230F2D3758F50196A11D49
:10054000B11D209375018093760190937701A0935C
:100550007801B093790180917A0190917B01A0910B
:100560007C01B0917D010196A11DB11D80937A019E
:1005700090937B01A0937C01B0937D01BF91AF91DB
:100580009F918F913F912F910F900FBE0F901F90D1
:10059000189526E8230F0296A11DB11DD2CF1F92F8
:1005A0000F920FB60F9211242F933F934F935F93A7
:1005B0006F937F938F939F93AF93BF93EF93FF932B
:1005C0008EE791E00E943501FF91EF91BF91AF91CD
:1005D0009F918F917F916F915F914F913F912F915B
:1005E0000F900FBE0F901F9018951F920F920FB68D
:1005F0000F9211242F938F939F93EF93FF93E0918A
:100600008E01F0918F018081E0919401F09195012C
:1006100082FD1BC09081809197018F5F8F73209125
:100620009801821741F0E0919701F0E0E258FE4F07
:10063000958F80939701FF91EF919F918F912F91CB
:100640000F900FBE0F901F9018958081F4CFEEE7AA
:10065000F1E01382128288EE93E0A0E0B0E08483A0
:100660009583A683B78384E091E09183808385ECB2
:1006700090E09587848784EC90E09787868780EC6C
:1006800090E0918B808B81EC90E0938B828B82EC5D
:1006900090E0958B848B86EC90E0978B868B118E07
:1006A000128E138E148E0895789484B5826084BD62
:1006B00084B5816084BD85B5826085BD85B5816066
:1006C00085BD80916E00816080936E0010928100E4
:1006D000809181008260809381008091810081609F
:1006E0008093810080918000816080938000809160
:1006F000B10084608093B1008091B00081608093EC
:10070000B00080917A00846080937A0080917A00B2
:10071000826080937A0080917A00816080937A0071
:1007200080917A00806880937A001092C1000E94C4
:10073000C401E0918E01F0918F0182E08083E0910D
:100740008A01F0918B011082E0918C01F0918D0172
:100750008FEC808310929601E0919201F0919301C9
:1007600086E08083E0919001F09191018081806129
:100770008083E0919001F091910180818860808375
:10078000E0919001F0919101808180688083E091F7
:100790009001F091910180818F7D8083C0E0D0E055
:1007A0000E94C40180937001811104C085E191E031
:1007B0000E947702C12CD12C7601C6012FEFC21AFC
:1007C000D20AE20AF20A209170012223C1F00E94AB
:1007D000C401809370018CE291E00E9477024AE0AC
:1007E000C701B6010E94330282E191E00E94260215
:1007F00068EE73E080E090E00E948400DECFAC0100
:10080000092E000C660B770B409371015093720117
:100810006093730170937401892BD9F085E491E0A2
:100820000E942602609171017091720180917301A2
:10083000909174014AE00E94330286E691E00E94A2
:10084000770210927101109272011092730110924E
:10085000740168EB7BE080E090E00E9484002097C8
:1008600009F49ECF0E942101882309F499CF0E94A8
:10087000000096CF5058BB27AA270E9452040C9420
:1008800096050E94880538F00E948F0520F039F403
:100890009F3F19F426F40C9485050EF4E095E7FBD0
:1008A0000C947F05E92F0E94A70558F3BA17620739
:1008B00073078407950720F079F4A6F50C94C90511
:1008C0000EF4E0950B2EBA2FA02D0B01B90190016B
:1008D0000C01CA01A0011124FF27591B99F0593FAF
:1008E00050F4503E68F11A16F040A22F232F342FF7
:1008F0004427585FF3CF469537952795A795F04045
:100900005395C9F77EF41F16BA0B620B730B840B59
:10091000BAF09150A1F0FF0FBB1F661F771F881F11
:10092000C2F70EC0BA0F621F731F841F48F4879569
:1009300077956795B795F7959E3F08F0B0CF93955B
:10094000880F08F09927EE0F9795879508950E94D4
:100950005B0508F481E008950E94C0040C9496059C
:100960000E948F0558F00E94880540F029F45F3FEF
:1009700029F00C947F0551110C94CA050C9485053F
:100980000E94A70568F39923B1F3552391F3951BB2
:10099000550BBB27AA2762177307840738F09F5FA0
:1009A0005F4F220F331F441FAA1FA9F335D00E2E0D
:1009B0003AF0E0E832D091505040E695001CCAF77A
:1009C0002BD0FE2F29D0660F771F881FBB1F26173D
:1009D00037074807AB07B0E809F0BB0B802DBF0114
:1009E000FF2793585F4F3AF09E3F510578F00C94E3
:1009F0007F050C94CA055F3FE4F3983ED4F38695D7
:100A000077956795B795F7959F5FC9F7880F911D03
:100A10009695879597F90895E1E0660F771F881FEF
:100A2000BB1F621773078407BA0720F0621B730BA2
:100A3000840BBA0BEE1F88F7E0950895E89409C07F
:100A400097FB3EF490958095709561957F4F8F4F01
:100A50009F4F9923A9F0F92F96E9BB279395F69517
:100A6000879577956795B795F111F8CFFAF4BB0F95
:100A700011F460FF1BC06F5F7F4F8F4F9F4F16C0F9
:100A8000882311F096E911C0772321F09EE8872F83
:100A9000762F05C0662371F096E8862F70E060E03F
:100AA0002AF09A95660F771F881FDAF7880F9695B8
:100AB000879597F90895990F0008550FAA0BE0E85C
:100AC000FEEF16161706E807F907C0F01216130610
:100AD000E407F50798F0621B730B840B950B39F450
:100AE0000A2661F0232B242B252B21F408950A26B6
:100AF00009F4A140A6958FEF811D811D089597F9F6
:100B00009F6780E870E060E008959FEF80EC0895B3
:100B100000240A94161617061806090608950024DC
:100B20000A9412161306140605060895092E039456
:100B3000000C11F4882352F0BB0F40F4BF2B11F4CA
:100B400060FF04C06F5F7F4F8F4F9F4F089557FD29
:100B50009058440F551F59F05F3F71F04795880F2B
:100B600097FB991F61F09F3F79F0879508951216C2
:100B700013061406551FF2CF4695F1DF08C016166E
:100B800017061806991FF1CF86957105610508941F
:100B90000895E894BB2766277727CB0197F9089536
:100BA0000E945B0508F48FEF08950E94E8050C94FD
:100BB00096050E94880538F00E948F0520F0952345
:100BC00011F00C947F050C94850511240C94CA0532
:100BD0000E94A70570F3959FC1F3950F50E0551F34
:100BE000629FF001729FBB27F00DB11D639FAA2782
:100BF000F00DB11DAA1F649F6627B00DA11D661FD1
:100C0000829F2227B00DA11D621F739FB00DA11DF1
:100C1000621F839FA00D611D221F749F3327A00DAB
:100C2000611D231F849F600D211D822F762F6A2F47
:100C300011249F5750409AF0F1F088234AF0EE0FAC
:100C4000FF1FBB1F661F771F881F91505040A9F7D9
:100C50009E3F510580F00C947F050C94CA055F3FC0
:100C6000E4F3983ED4F3869577956795B795F79515
:100C7000E7959F5FC1F7FE2B880F911D969587958D
:100C800097F90895A1E21A2EAA1BBB1BFD010DC006
:100C9000AA1FBB1FEE1FFF1FA217B307E407F5072C
:100CA00020F0A21BB30BE40BF50B661F771F881F08
:100CB000991F1A9469F760957095809590959B019E
:100CC000AC01BD01CF010895EE0FFF1F0590F49117
:080CD000E02D0994F894FFCF18
:100CD800000000005701B700E400A4011501F3006B
:100CE80007010D0A0041637475616C6D656E74656A
:100CF800206170616761646F2E2E2E0041637475E8
:100D0800616C6D656E746520656E63656E6469649B
:100D18006F2E2E2E00456C2065717569706F2065E9
:100D2800737475766F20656E63656E6469646F2091
:100D3800706F723A200020536567756E646F730098
:00000001FF
